:100000000C942A000C943A030C9447000C9447007B
:100010000C9447000C9447000C9421040C94D503D5
:100020000C9447000C94FC030C9447000C9494032C
:100030000C9447000C9447000C9447000C94470024
:100040000C9461030C9447000C9447000C944700F7
:100050000C94470011241FBECFE5D8E0DEBFCDBF12
:1000600010E0A0E6B0E0E2E1FDE002C005900D92F4
:10007000A239B107D9F720E0A2E9B0E001C01D9292
:10008000A53BB207E1F70E9449000C9487060C9447
:1000900000000E94990481E00E942E030E94BD028C
:1000A0000E94D0020E94D40061E080E00E94EF0133
:1000B00088E890E00E944E010E9414020E942302F0
:1000C0006B017C016BE080E00E94EF01C701B6018B
:1000D0000E946A012FEF89E698E12150804090400C
:1000E000E1F700C000000E940A02DECFCF93C82FC4
:1000F00060E081E00E94360260E082E00E94360209
:10010000C4FB662760F983E00E943602C5FB6627C0
:1001100060F984E00E943602C6FB662760F985E03C
:100120000E9436026C2F661F6627661F86E00E94BB
:10013000360261E082E00E9436028FE99FE001977B
:10014000F1F700C0000060E082E00E9436026C2FF0
:10015000617083E00E943602C1FB662760F984E08B
:100160000E943602C2FB662760F985E00E943602D3
:10017000C3FB662760F986E00E94360261E082E0F8
:100180000E9436028FE99FE00197F1F700C000005E
:1001900060E082E00E9436028FE19EE40197F1F771
:1001A00000C00000CF91089583E30E94760082E3AF
:1001B0000E94760088E20E94760081E00E9476002C
:1001C00086E00E9476008CE00E94760082E00E9429
:1001D00076008FE19EE40197F1F700C000000895DA
:1001E000CF93C82F61E081E00E94360260E082E098
:1001F0000E943602C4FB662760F983E00E94360243
:10020000C5FB662760F984E00E943602C6FB6627BC
:1002100060F985E00E9436026C2F661F6627661F14
:1002200086E00E94360261E082E00E9436028FE999
:100230009FE00197F1F700C0000060E082E00E94BB
:1002400036026C2F617083E00E943602C1FB662784
:1002500060F984E00E943602C2FB662760F985E0FF
:100260000E943602C3FB662760F986E00E943602D0
:1002700061E082E00E9436028FE99FE00197F1F78A
:1002800000C0000060E082E00E9436028FE19EE440
:100290000197F1F700C00000CF9108950F931F93CD
:1002A000CF93FC018081882359F08F01C0E00E9428
:1002B000F000CF5FF801EC0FF11D80818111F7CFC5
:1002C0008FE19EE40197F1F700C00000CF911F91EC
:1002D0000F9108958F929F92AF92BF92CF92DF922B
:1002E000EF92FF920F931F938B019C016115710593
:1002F0008105910521F480E30E94F0005FC09923FD
:1003000034F016161706180619062CF057C08DE2A1
:100310000E94F00053C061E070E080E090E00F2E9A
:10032000FAE08F2E912CA12CB12CF02DDC01CB0109
:10033000880F991FAA1FBB1F6C017D01CC0CDD1C0F
:10034000EE1CFF1CCC0CDD1CEE1CFF1CC80ED91EC5
:10035000EA1EFB1EC901B801A50194010E944606D0
:100360006C0D7D1D8E1D9F1D022F132F242F352FE9
:100370001016110612061306CCF2623071058105C3
:100380009105E4F00F2EFAE08F2E912CA12CB12CC8
:10039000F02DA50194010E944606E22EF32E042FB3
:1003A000152F80E3860F0E94F0006E2D7F2D802F89
:1003B000912F62307105810591055CF78FE19EE414
:1003C0000197F1F700C000001F910F91FF90EF908F
:1003D000DF90CF90BF90AF909F908F900895CF9374
:1003E000DF9300D0CDB7DEB790E8998390EC9A8385
:1003F000FE01E80FF11D8181860F0E9476008FE1DA
:100400009EE40197F1F700C000000F900F90DF917C
:10041000CF91089581E00E9476008FE19EE40197DC
:10042000F1F700C00000089561E08CE10E943602FF
:100430008FE39CE90197F1F700C0000060E08CE1D8
:100440000E94360208950E94D9020E944B0526E9B7
:1004500033E44BE05DE30E94B10520E030E040E092
:100460005FE30E94B1050E941C050895982F9695A0
:10047000969596958770662309F43FC0613009F020
:100480007BC0913099F028F09230E9F0933041F13F
:1004900008954BB321E030E0B90102C0660F771F29
:1004A0008A95E2F7CB01842B8BBB089548B321E0FA
:1004B00030E0B90102C0660F771F8A95E2F7CB01E1
:1004C000842B88BB089545B321E030E0B90102C018
:1004D000660F771F8A95E2F7CB01842B85BB0895C1
:1004E00042B321E030E0B90102C0660F771F8A9560
:1004F000E2F7CB01842B82BB08959130A1F028F064
:100500009230F9F0933059F108954BB321E030E087
:10051000B90102C0660F771F8A95E2F7CB0180957B
:1005200084238BBB089548B321E030E0B90102C0B9
:10053000660F771F8A95E2F7CB018095842388BBED
:10054000089545B321E030E0B90102C0660F771F7E
:100550008A95E2F7CB018095842385BB089542B349
:1005600021E030E0B90102C0660F771F8A95E2F7FB
:10057000CB018095842382BB08958FB58E7F8FBD7C
:100580008FB58D7F8FBD8FB5877F8FBD8FB58F7EE8
:100590008FBD89B78B7F89BF8EB585608EBD08956D
:1005A00017BC16BC8EB580648EBD89B7806289BFCA
:1005B000089580919E0090919F00A091A000B0911D
:1005C000A1000297A105B10509F03FC08091A200EA
:1005D0009091A300A091A400B091A5004091A60025
:1005E0005091A7006091A8007091A900841B950B01
:1005F000A60BB70B880F991FAA1FBB1F880F991F47
:10060000AA1FBB1F880F991FAA1FBB1F880F991F06
:10061000AA1FBB1F880F991FAA1FBB1F880F991FF6
:10062000AA1FBB1F80939A0090939B00A0939C00ED
:10063000B0939D0010929E0010929F001092A00017
:100640001092A10089B7806289BF60919A00709171
:100650009B0080919C0090919D000895882331F02B
:10066000813039F48FB780688FBF08958FB78F7747
:100670008FBF08951F920F920FB60F9211242F93E0
:100680003F934F935F936F937F938F939F93AF931A
:10069000BF93EF93FF93E091AB00F091AC0009950D
:1006A000FF91EF91BF91AF919F918F917F916F914A
:1006B0005F914F913F912F910F900FBE0F901F9020
:1006C00018951F920F920FB60F9211242F933F93FC
:1006D0004F935F938F939F93AF93BF9344B155B163
:1006E00028E833E1429FC001439F900D529F900D37
:1006F0001124892F992786958695A0E0B0E08093F4
:10070000AD009093AE00A093AF00B093B000BF9146
:10071000AF919F918F915F914F913F912F910F904A
:100720000FBE0F901F9018951F920F920FB60F9249
:1007300011242F933F934F935F936F937F938F93E6
:100740009F93AF93BF93EF93FF938091AA008F5F26
:100750008093AA0090E0A0E0B0E040919600509114
:100760009700609198007091990084179507A607EB
:10077000B70751F4E091AB00F091AC0009951092ED
:10078000AA008091920082BFFF91EF91BF91AF913B
:100790009F918F917F916F915F914F913F912F9199
:1007A0000F900FBE0F901F9018951F920F920FB6CB
:1007B0000F9211242F933F934F935F936F937F93E7
:1007C0008F939F93AF93BF93EF93FF93E091AB0011
:1007D000F091AC000995FF91EF91BF91AF919F917E
:1007E0008F917F916F915F914F913F912F910F90DA
:1007F0000FBE0F901F9018951F920F920FB60F9279
:1008000011248F939F93AF93BF938091B1009091E8
:10081000B200A091B300B091B4000196A11DB11D2A
:100820008093B1009093B200A093B300B093B40052
:10083000BF91AF919F918F910F900FBE0F901F901E
:1008400018951F920F920FB60F9211242F933F937A
:100850008F939F93AF93BF9380919E0090919F0041
:10086000A091A000B091A1000196A11DB11D80939F
:100870009E0090939F00A093A000B093A100809150
:100880009E0090919F00A091A000B091A1000197BF
:10089000A105B105C1F486B597B5A0E0B0E080939D
:1008A000A6009093A700A093A800B093A90010926F
:1008B000B1001092B2001092B3001092B4008EB545
:1008C0008F7B8EBD2BC080919E0090919F00A09148
:1008D000A000B091A1000297A105B105F9F426B5D9
:1008E00037B58091B1009091B200A091B300B09162
:1008F000B400DC0199278827820F931FA11DB11D29
:100900008093A2009093A300A093A400B093A500AD
:100910008EB580648EBD89B78F7D89BFBF91AF9141
:100920009F918F913F912F910F900FBE0F901F902D
:100930001895E0E6F0E048E850E061E070E0808182
:10094000982F96959695969587702181222319F078
:100950002130C9F16BC0913091F028F09230D9F07C
:10096000933029F163C09AB39B0102C0220F331F59
:100970008A95E2F7822F809589238ABB57C097B367
:100980009B0102C0220F331F8A95E2F7822F8095C8
:10099000892387BB4BC094B39B0102C0220F331F36
:1009A0008A95E2F7822F8095892384BB3FC091B35B
:1009B0009B0102C0220F331F8A95E2F7822F809598
:1009C000892381BB33C0913089F028F09230C9F07F
:1009D000933011F12BC02AB3DB0102C0AA0FBB1F59
:1009E0008A95E2F7CD01822B8ABB20C027B3DB01B9
:1009F00002C0AA0FBB1F8A95E2F7CD01822B87BBED
:100A000015C024B3DB0102C0AA0FBB1F8A95E2F711
:100A1000CD01822B84BB0AC021B3DB0102C0AA0F27
:100A2000BB1F8A95E2F7CD01822B81BB3296E4177A
:100A3000F50709F084CF08950E94900588F09F572C
:100A400098F0B92F9927B751B0F0E1F0660F771FF2
:100A5000881F991F1AF0BA95C9F714C0B13091F0E8
:100A60000E94AA05B1E008950C94AA05672F782F7B
:100A70008827B85F39F0B93FCCF3869577956795AD
:100A8000B395D9F73EF490958095709561957F4F19
:100A90008F4F9F4F0895E89409C097FB3EF49095BF
:100AA0008095709561957F4F8F4F9F4F9923A9F047
:100AB000F92F96E9BB279395F695879577956795D6
:100AC000B795F111F8CFFAF4BB0F11F460FF1BC01A
:100AD0006F5F7F4F8F4F9F4F16C0882311F096E9AD
:100AE00011C0772321F09EE8872F762F05C066235B
:100AF00071F096E8862F70E060E02AF09A95660F14
:100B0000771F881FDAF7880F9695879597F90895CC
:100B100057FD9058440F551F59F05F3F71F04795AE
:100B2000880F97FB991F61F09F3F79F08795089593
:100B3000121613061406551FF2CF4695F1DF08C0B2
:100B4000161617061806991FF1CF869571056105CF
:100B500008940895E894BB2766277727CB0197F977
:100B600008950E94C4050C9435060E94270638F0AB
:100B70000E942E0620F0952311F00C941E060C9472
:100B8000240611240C94AB050E94880570F3959FF0
:100B9000C1F3950F50E0551F629FF001729FBB2774
:100BA000F00DB11D639FAA27F00DB11DAA1F649F10
:100BB0006627B00DA11D661F829F2227B00DA11DC3
:100BC000621F739FB00DA11D621F839FA00D611D49
:100BD000221F749F3327A00D611D231F849F600D6A
:100BE000211D822F762F6A2F11249F5750409AF093
:100BF000F1F088234AF0EE0FFF1FBB1F661F771F1F
:100C0000881F91505040A9F79E3F510580F00C94E9
:100C10001E060C94AB055F3FE4F3983ED4F3869533
:100C200077956795B795F795E7959F5FC1F7FE2B89
:100C3000880F911D9695879597F9089597F99F6765
:100C400080E870E060E008959FEF80EC0895002454
:100C50000A941616170618060906089500240A9421
:100C600012161306140605060895092E0394000CA7
:100C700011F4882352F0BB0F40F4BF2B11F460FF36
:100C800004C06F5F7F4F8F4F9F4F0895052E97FBD6
:100C90001EF400940E945D0657FD07D00E94650671
:100CA00007FC03D04EF40C945D06509540953095AA
:100CB00021953F4F4F4F5F4F0895909580957095C8
:100CC00061957F4F8F4F9F4F0895A1E21A2EAA1B67
:100CD000BB1BFD010DC0AA1FBB1FEE1FFF1FA217EC
:100CE000B307E407F50720F0A21BB30BE40BF50BE9
:100CF000661F771F881F991F1A9469F76095709572
:100D0000809590959B01AC01BD01CF010895F894A9
:020D1000FFCF13
:100D12000101020103010401050106010B010C019D
:100D22000D010E011A001B001C011D001E001A00FD
:100D3200120100000000000044497374616E636593
:020D42003A0075
:00000001FF
